{
  "address": "0x6b33F8537275C590BDeC4DEebc43d72e9653DcB5",
  "abi": [
    {
      "inputs": [
        {
          "internalType": "address",
          "name": "_VRFCoordinator",
          "type": "address"
        },
        {
          "internalType": "address",
          "name": "_LinkToken",
          "type": "address"
        },
        {
          "internalType": "bytes32",
          "name": "_keyHash",
          "type": "bytes32"
        },
        {
          "internalType": "uint256",
          "name": "_fee",
          "type": "uint256"
        }
      ],
      "stateMutability": "nonpayable",
      "type": "constructor"
    },
    {
      "anonymous": false,
      "inputs": [
        {
          "indexed": true,
          "internalType": "address",
          "name": "owner",
          "type": "address"
        },
        {
          "indexed": true,
          "internalType": "address",
          "name": "approved",
          "type": "address"
        },
        {
          "indexed": true,
          "internalType": "uint256",
          "name": "tokenId",
          "type": "uint256"
        }
      ],
      "name": "Approval",
      "type": "event"
    },
    {
      "anonymous": false,
      "inputs": [
        {
          "indexed": true,
          "internalType": "address",
          "name": "owner",
          "type": "address"
        },
        {
          "indexed": true,
          "internalType": "address",
          "name": "operator",
          "type": "address"
        },
        {
          "indexed": false,
          "internalType": "bool",
          "name": "approved",
          "type": "bool"
        }
      ],
      "name": "ApprovalForAll",
      "type": "event"
    },
    {
      "anonymous": false,
      "inputs": [
        {
          "indexed": true,
          "internalType": "uint256",
          "name": "tokenId",
          "type": "uint256"
        },
        {
          "indexed": false,
          "internalType": "string",
          "name": "tokenURI",
          "type": "string"
        }
      ],
      "name": "CreatedRandomSVG",
      "type": "event"
    },
    {
      "anonymous": false,
      "inputs": [
        {
          "indexed": true,
          "internalType": "uint256",
          "name": "tokenId",
          "type": "uint256"
        },
        {
          "indexed": false,
          "internalType": "uint256",
          "name": "randomNumber",
          "type": "uint256"
        }
      ],
      "name": "CreatedUnfinishedRandomSVG",
      "type": "event"
    },
    {
      "anonymous": false,
      "inputs": [
        {
          "indexed": true,
          "internalType": "address",
          "name": "from",
          "type": "address"
        },
        {
          "indexed": true,
          "internalType": "address",
          "name": "to",
          "type": "address"
        },
        {
          "indexed": true,
          "internalType": "uint256",
          "name": "tokenId",
          "type": "uint256"
        }
      ],
      "name": "Transfer",
      "type": "event"
    },
    {
      "anonymous": false,
      "inputs": [
        {
          "indexed": true,
          "internalType": "bytes32",
          "name": "requestId",
          "type": "bytes32"
        },
        {
          "indexed": true,
          "internalType": "uint256",
          "name": "tokenId",
          "type": "uint256"
        }
      ],
      "name": "requestedRandomSVG",
      "type": "event"
    },
    {
      "inputs": [
        {
          "internalType": "address",
          "name": "to",
          "type": "address"
        },
        {
          "internalType": "uint256",
          "name": "tokenId",
          "type": "uint256"
        }
      ],
      "name": "approve",
      "outputs": [],
      "stateMutability": "nonpayable",
      "type": "function"
    },
    {
      "inputs": [
        {
          "internalType": "address",
          "name": "owner",
          "type": "address"
        }
      ],
      "name": "balanceOf",
      "outputs": [
        {
          "internalType": "uint256",
          "name": "",
          "type": "uint256"
        }
      ],
      "stateMutability": "view",
      "type": "function"
    },
    {
      "inputs": [
        {
          "internalType": "uint256",
          "name": "",
          "type": "uint256"
        }
      ],
      "name": "colors",
      "outputs": [
        {
          "internalType": "string",
          "name": "",
          "type": "string"
        }
      ],
      "stateMutability": "view",
      "type": "function"
    },
    {
      "inputs": [],
      "name": "create",
      "outputs": [
        {
          "internalType": "bytes32",
          "name": "requestId",
          "type": "bytes32"
        }
      ],
      "stateMutability": "nonpayable",
      "type": "function"
    },
    {
      "inputs": [],
      "name": "fee",
      "outputs": [
        {
          "internalType": "uint256",
          "name": "",
          "type": "uint256"
        }
      ],
      "stateMutability": "view",
      "type": "function"
    },
    {
      "inputs": [
        {
          "internalType": "uint256",
          "name": "_tokenId",
          "type": "uint256"
        }
      ],
      "name": "finishMint",
      "outputs": [],
      "stateMutability": "nonpayable",
      "type": "function"
    },
    {
      "inputs": [
        {
          "internalType": "string",
          "name": "_imageURI",
          "type": "string"
        }
      ],
      "name": "formatTokenURI",
      "outputs": [
        {
          "internalType": "string",
          "name": "",
          "type": "string"
        }
      ],
      "stateMutability": "pure",
      "type": "function"
    },
    {
      "inputs": [
        {
          "internalType": "uint256",
          "name": "_randomNumber",
          "type": "uint256"
        }
      ],
      "name": "generatePath",
      "outputs": [
        {
          "internalType": "string",
          "name": "pathSvg",
          "type": "string"
        }
      ],
      "stateMutability": "view",
      "type": "function"
    },
    {
      "inputs": [
        {
          "internalType": "uint256",
          "name": "_randomness",
          "type": "uint256"
        }
      ],
      "name": "generatePathCommand",
      "outputs": [
        {
          "internalType": "string",
          "name": "pathCommand",
          "type": "string"
        }
      ],
      "stateMutability": "view",
      "type": "function"
    },
    {
      "inputs": [
        {
          "internalType": "uint256",
          "name": "_randomNumber",
          "type": "uint256"
        }
      ],
      "name": "generateSVG",
      "outputs": [
        {
          "internalType": "string",
          "name": "finalSvg",
          "type": "string"
        }
      ],
      "stateMutability": "view",
      "type": "function"
    },
    {
      "inputs": [
        {
          "internalType": "uint256",
          "name": "tokenId",
          "type": "uint256"
        }
      ],
      "name": "getApproved",
      "outputs": [
        {
          "internalType": "address",
          "name": "",
          "type": "address"
        }
      ],
      "stateMutability": "view",
      "type": "function"
    },
    {
      "inputs": [
        {
          "internalType": "address",
          "name": "owner",
          "type": "address"
        },
        {
          "internalType": "address",
          "name": "operator",
          "type": "address"
        }
      ],
      "name": "isApprovedForAll",
      "outputs": [
        {
          "internalType": "bool",
          "name": "",
          "type": "bool"
        }
      ],
      "stateMutability": "view",
      "type": "function"
    },
    {
      "inputs": [],
      "name": "keyHash",
      "outputs": [
        {
          "internalType": "bytes32",
          "name": "",
          "type": "bytes32"
        }
      ],
      "stateMutability": "view",
      "type": "function"
    },
    {
      "inputs": [],
      "name": "maxNumberofPathCommands",
      "outputs": [
        {
          "internalType": "uint256",
          "name": "",
          "type": "uint256"
        }
      ],
      "stateMutability": "view",
      "type": "function"
    },
    {
      "inputs": [],
      "name": "maxNumberofPaths",
      "outputs": [
        {
          "internalType": "uint256",
          "name": "",
          "type": "uint256"
        }
      ],
      "stateMutability": "view",
      "type": "function"
    },
    {
      "inputs": [],
      "name": "name",
      "outputs": [
        {
          "internalType": "string",
          "name": "",
          "type": "string"
        }
      ],
      "stateMutability": "view",
      "type": "function"
    },
    {
      "inputs": [
        {
          "internalType": "uint256",
          "name": "tokenId",
          "type": "uint256"
        }
      ],
      "name": "ownerOf",
      "outputs": [
        {
          "internalType": "address",
          "name": "",
          "type": "address"
        }
      ],
      "stateMutability": "view",
      "type": "function"
    },
    {
      "inputs": [
        {
          "internalType": "uint256",
          "name": "",
          "type": "uint256"
        }
      ],
      "name": "pathCommands",
      "outputs": [
        {
          "internalType": "string",
          "name": "",
          "type": "string"
        }
      ],
      "stateMutability": "view",
      "type": "function"
    },
    {
      "inputs": [
        {
          "internalType": "bytes32",
          "name": "requestId",
          "type": "bytes32"
        },
        {
          "internalType": "uint256",
          "name": "randomness",
          "type": "uint256"
        }
      ],
      "name": "rawFulfillRandomness",
      "outputs": [],
      "stateMutability": "nonpayable",
      "type": "function"
    },
    {
      "inputs": [
        {
          "internalType": "bytes32",
          "name": "",
          "type": "bytes32"
        }
      ],
      "name": "requestIdToSender",
      "outputs": [
        {
          "internalType": "address",
          "name": "",
          "type": "address"
        }
      ],
      "stateMutability": "view",
      "type": "function"
    },
    {
      "inputs": [
        {
          "internalType": "bytes32",
          "name": "",
          "type": "bytes32"
        }
      ],
      "name": "requestIdToTokenId",
      "outputs": [
        {
          "internalType": "uint256",
          "name": "",
          "type": "uint256"
        }
      ],
      "stateMutability": "view",
      "type": "function"
    },
    {
      "inputs": [
        {
          "internalType": "address",
          "name": "from",
          "type": "address"
        },
        {
          "internalType": "address",
          "name": "to",
          "type": "address"
        },
        {
          "internalType": "uint256",
          "name": "tokenId",
          "type": "uint256"
        }
      ],
      "name": "safeTransferFrom",
      "outputs": [],
      "stateMutability": "nonpayable",
      "type": "function"
    },
    {
      "inputs": [
        {
          "internalType": "address",
          "name": "from",
          "type": "address"
        },
        {
          "internalType": "address",
          "name": "to",
          "type": "address"
        },
        {
          "internalType": "uint256",
          "name": "tokenId",
          "type": "uint256"
        },
        {
          "internalType": "bytes",
          "name": "_data",
          "type": "bytes"
        }
      ],
      "name": "safeTransferFrom",
      "outputs": [],
      "stateMutability": "nonpayable",
      "type": "function"
    },
    {
      "inputs": [
        {
          "internalType": "address",
          "name": "operator",
          "type": "address"
        },
        {
          "internalType": "bool",
          "name": "approved",
          "type": "bool"
        }
      ],
      "name": "setApprovalForAll",
      "outputs": [],
      "stateMutability": "nonpayable",
      "type": "function"
    },
    {
      "inputs": [],
      "name": "size",
      "outputs": [
        {
          "internalType": "uint256",
          "name": "",
          "type": "uint256"
        }
      ],
      "stateMutability": "view",
      "type": "function"
    },
    {
      "inputs": [
        {
          "internalType": "bytes4",
          "name": "interfaceId",
          "type": "bytes4"
        }
      ],
      "name": "supportsInterface",
      "outputs": [
        {
          "internalType": "bool",
          "name": "",
          "type": "bool"
        }
      ],
      "stateMutability": "view",
      "type": "function"
    },
    {
      "inputs": [
        {
          "internalType": "string",
          "name": "_svg",
          "type": "string"
        }
      ],
      "name": "svgToImageURI",
      "outputs": [
        {
          "internalType": "string",
          "name": "",
          "type": "string"
        }
      ],
      "stateMutability": "pure",
      "type": "function"
    },
    {
      "inputs": [],
      "name": "symbol",
      "outputs": [
        {
          "internalType": "string",
          "name": "",
          "type": "string"
        }
      ],
      "stateMutability": "view",
      "type": "function"
    },
    {
      "inputs": [],
      "name": "tokenCounter",
      "outputs": [
        {
          "internalType": "uint256",
          "name": "",
          "type": "uint256"
        }
      ],
      "stateMutability": "view",
      "type": "function"
    },
    {
      "inputs": [
        {
          "internalType": "uint256",
          "name": "",
          "type": "uint256"
        }
      ],
      "name": "tokenIdToRandomNumber",
      "outputs": [
        {
          "internalType": "uint256",
          "name": "",
          "type": "uint256"
        }
      ],
      "stateMutability": "view",
      "type": "function"
    },
    {
      "inputs": [
        {
          "internalType": "uint256",
          "name": "tokenId",
          "type": "uint256"
        }
      ],
      "name": "tokenURI",
      "outputs": [
        {
          "internalType": "string",
          "name": "",
          "type": "string"
        }
      ],
      "stateMutability": "view",
      "type": "function"
    },
    {
      "inputs": [
        {
          "internalType": "address",
          "name": "from",
          "type": "address"
        },
        {
          "internalType": "address",
          "name": "to",
          "type": "address"
        },
        {
          "internalType": "uint256",
          "name": "tokenId",
          "type": "uint256"
        }
      ],
      "name": "transferFrom",
      "outputs": [],
      "stateMutability": "nonpayable",
      "type": "function"
    }
  ],
  "transactionHash": "0x42ecc02d081866517705ac3818999eb4ed6d8e2268226e7be36997ccc24f853d",
  "args": [
    "0xb3dCcb4Cf7a26f6cf6B120Cf5A73875B7BBc655B",
    "0x01be23585060835e02b77ef475b0cc51aa1e0709",
    "0x2ed0feb3e7fd2022120aa84fab1945545a9f2ffc9076fd6156fa96eaff4c1311",
    "100000000000000000"
  ],
  "solcInputHash": "df638ccdc31d829f132c452c036b81bd",
  "bytecode": "0x60c06040523480156200001157600080fd5b5060405162004f5238038062004f528339818101604052810190620000379190620005c3565b83836040518060400160405280600981526020017f52616e646f6d53564700000000000000000000000000000000000000000000008152506040518060400160405280600581526020017f72734e46540000000000000000000000000000000000000000000000000000008152508160009080519060200190620000bd92919062000392565b508060019080519060200190620000d692919062000392565b5050508173ffffffffffffffffffffffffffffffffffffffff1660a08173ffffffffffffffffffffffffffffffffffffffff1660601b815250508073ffffffffffffffffffffffffffffffffffffffff1660808173ffffffffffffffffffffffffffffffffffffffff1660601b81525050505080600981905550816008819055506000600a81905550600a600b819055506005600c819055506101f4600d8190555060405180604001604052806040518060400160405280600181526020017f4d0000000000000000000000000000000000000000000000000000000000000081525081526020016040518060400160405280600181526020017f4c00000000000000000000000000000000000000000000000000000000000000815250815250600e9060026200020992919062000423565b506040518060c001604052806040518060400160405280600381526020017f726564000000000000000000000000000000000000000000000000000000000081525081526020016040518060400160405280600481526020017f626c75650000000000000000000000000000000000000000000000000000000081525081526020016040518060400160405280600581526020017f677265656e00000000000000000000000000000000000000000000000000000081525081526020016040518060400160405280600681526020017f79656c6c6f77000000000000000000000000000000000000000000000000000081525081526020016040518060400160405280600581526020017f626c61636b00000000000000000000000000000000000000000000000000000081525081526020016040518060400160405280600581526020017f7768697465000000000000000000000000000000000000000000000000000000815250815250600f906006620003879291906200048a565b50505050506200072a565b828054620003a09062000677565b90600052602060002090601f016020900481019282620003c4576000855562000410565b82601f10620003df57805160ff191683800117855562000410565b8280016001018555821562000410579182015b828111156200040f578251825591602001919060010190620003f2565b5b5090506200041f9190620004f1565b5090565b82805482825590600052602060002090810192821562000477579160200282015b82811115620004765782518290805190602001906200046592919062000392565b509160200191906001019062000444565b5b50905062000486919062000510565b5090565b828054828255906000526020600020908101928215620004de579160200282015b82811115620004dd578251829080519060200190620004cc92919062000392565b5091602001919060010190620004ab565b5b509050620004ed919062000510565b5090565b5b808211156200050c576000816000905550600101620004f2565b5090565b5b808211156200053457600081816200052a919062000538565b5060010162000511565b5090565b508054620005469062000677565b6000825580601f106200055a57506200057b565b601f0160209004906000526020600020908101906200057a9190620004f1565b5b50565b6000815190506200058f81620006dc565b92915050565b600081519050620005a681620006f6565b92915050565b600081519050620005bd8162000710565b92915050565b60008060008060808587031215620005da57600080fd5b6000620005ea878288016200057e565b9450506020620005fd878288016200057e565b9350506040620006108782880162000595565b92505060606200062387828801620005ac565b91505092959194509250565b60006200063c826200064d565b9050919050565b6000819050919050565b600073ffffffffffffffffffffffffffffffffffffffff82169050919050565b6000819050919050565b600060028204905060018216806200069057607f821691505b60208210811415620006a757620006a6620006ad565b5b50919050565b7f4e487b7100000000000000000000000000000000000000000000000000000000600052602260045260246000fd5b620006e7816200062f565b8114620006f357600080fd5b50565b620007018162000643565b81146200070d57600080fd5b50565b6200071b816200066d565b81146200072757600080fd5b50565b60805160601c60a05160601c6147f56200075d6000396000818161119e01526125790152600061253d01526147f56000f3fe608060405234801561001057600080fd5b50600436106101f05760003560e01c806394985ddd1161010f578063bd11f69d116100a2578063ddca3f4311610071578063ddca3f431461063d578063e985e9c51461065b578063efc81a8c1461068b578063fbfcec29146106a9576101f0565b8063bd11f69d1461058f578063c68b49d1146105bf578063c87b56dd146105ef578063d082e3811461061f576101f0565b80639b4af476116100de5780639b4af476146105095780639c1cd79514610527578063a22cb46514610557578063b88d4fde14610573576101f0565b806394985ddd14610481578063949d225d1461049d578063955968d4146104bb57806395d89b41146104eb576101f0565b806333af5989116101875780636352211e116101565780636352211e146103c15780636dcee4ca146103f157806370a082311461042157806371aee19314610451576101f0565b806333af59891461033b57806342842e0e1461036b57806361728f3914610387578063624194c7146103a5576101f0565b8063219c0eee116101c3578063219c0eee1461028f57806322881f88146102bf57806323b872dd146102ef57806330d871c61461030b576101f0565b806301ffc9a7146101f557806306fdde0314610225578063081812fc14610243578063095ea7b314610273575b600080fd5b61020f600480360381019061020a91906130e8565b6106c7565b60405161021c9190613f08565b60405180910390f35b61022d6107a9565b60405161023a9190613fac565b60405180910390f35b61025d6004803603810190610258919061317b565b61083b565b60405161026a9190613e63565b60405180910390f35b61028d6004803603810190610288919061301e565b6108c0565b005b6102a960048036038101906102a49190613083565b6109d8565b6040516102b69190613e63565b60405180910390f35b6102d960048036038101906102d49190613083565b610a0b565b6040516102e6919061424e565b60405180910390f35b61030960048036038101906103049190612f18565b610a23565b005b6103256004803603810190610320919061313a565b610a83565b6040516103329190613fac565b60405180910390f35b6103556004803603810190610350919061317b565b610b1c565b6040516103629190613fac565b60405180910390f35b61038560048036038101906103809190612f18565b610d0e565b005b61038f610d2e565b60405161039c9190613f23565b60405180910390f35b6103bf60048036038101906103ba919061317b565b610d34565b005b6103db60048036038101906103d6919061317b565b610ea3565b6040516103e89190613e63565b60405180910390f35b61040b6004803603810190610406919061317b565b610f55565b6040516104189190613fac565b60405180910390f35b61043b60048036038101906104369190612eb3565b611057565b604051610448919061424e565b60405180910390f35b61046b6004803603810190610466919061313a565b61110f565b6040516104789190613fac565b60405180910390f35b61049b600480360381019061049691906130ac565b61119c565b005b6104a5611238565b6040516104b2919061424e565b60405180910390f35b6104d560048036038101906104d0919061317b565b61123e565b6040516104e29190613fac565b60405180910390f35b6104f36112ea565b6040516105009190613fac565b60405180910390f35b61051161137c565b60405161051e919061424e565b60405180910390f35b610541600480360381019061053c919061317b565b611382565b60405161054e919061424e565b60405180910390f35b610571600480360381019061056c9190612fe2565b61139a565b005b61058d60048036038101906105889190612f67565b61151b565b005b6105a960048036038101906105a4919061317b565b61157d565b6040516105b69190613fac565b60405180910390f35b6105d960048036038101906105d4919061317b565b611629565b6040516105e69190613fac565b60405180910390f35b6106096004803603810190610604919061317b565b6117e8565b6040516106169190613fac565b60405180910390f35b61062761193a565b604051610634919061424e565b60405180910390f35b610645611940565b604051610652919061424e565b60405180910390f35b61067560048036038101906106709190612edc565b611946565b6040516106829190613f08565b60405180910390f35b6106936119da565b6040516106a09190613f23565b60405180910390f35b6106b1611aa4565b6040516106be919061424e565b60405180910390f35b60007f80ac58cd000000000000000000000000000000000000000000000000000000007bffffffffffffffffffffffffffffffffffffffffffffffffffffffff1916827bffffffffffffffffffffffffffffffffffffffffffffffffffffffff1916148061079257507f5b5e139f000000000000000000000000000000000000000000000000000000007bffffffffffffffffffffffffffffffffffffffffffffffffffffffff1916827bffffffffffffffffffffffffffffffffffffffffffffffffffffffff1916145b806107a257506107a182611aaa565b5b9050919050565b6060600080546107b89061457f565b80601f01602080910402602001604051908101604052809291908181526020018280546107e49061457f565b80156108315780601f1061080657610100808354040283529160200191610831565b820191906000526020600020905b81548152906001019060200180831161081457829003601f168201915b5050505050905090565b600061084682611b14565b610885576040517f08c379a000000000000000000000000000000000000000000000000000000000815260040161087c9061414e565b60405180910390fd5b6004600083815260200190815260200160002060009054906101000a900473ffffffffffffffffffffffffffffffffffffffff169050919050565b60006108cb82610ea3565b90508073ffffffffffffffffffffffffffffffffffffffff168373ffffffffffffffffffffffffffffffffffffffff16141561093c576040517f08c379a0000000000000000000000000000000000000000000000000000000008152600401610933906141ee565b60405180910390fd5b8073ffffffffffffffffffffffffffffffffffffffff1661095b611b80565b73ffffffffffffffffffffffffffffffffffffffff16148061098a575061098981610984611b80565b611946565b5b6109c9576040517f08c379a00000000000000000000000000000000000000000000000000000000081526004016109c09061408e565b60405180910390fd5b6109d38383611b88565b505050565b60106020528060005260406000206000915054906101000a900473ffffffffffffffffffffffffffffffffffffffff1681565b60116020528060005260406000206000915090505481565b610a34610a2e611b80565b82611c41565b610a73576040517f08c379a0000000000000000000000000000000000000000000000000000000008152600401610a6a9061420e565b60405180910390fd5b610a7e838383611d1f565b505050565b606060006040518060400160405280601a81526020017f646174613a696d6167652f7376672b786d6c3b6261736536342c00000000000081525090506000610ae984604051602001610ad59190613cfd565b604051602081830303815290604052611f7b565b905060008282604051602001610b00929190613d14565b6040516020818303038152906040529050809350505050919050565b606060006001600c5484610b30919061460e565b610b3a9190614366565b90506040518060400160405280600981526020017f3c7061746820643d270000000000000000000000000000000000000000000000815250915060005b81811015610c025760008482600d54610b909190614366565b604051602001610ba1929190614269565b6040516020818303038152906040528051906020012060001c90506000610bc782611629565b90508481604051602001610bdc929190613d14565b604051602081830303815290604052945050508080610bfa906145b1565b915050610b77565b506000600f808054905085610c17919061460e565b81548110610c4e577f4e487b7100000000000000000000000000000000000000000000000000000000600052603260045260246000fd5b906000526020600020018054610c639061457f565b80601f0160208091040260200160405190810160405280929190818152602001828054610c8f9061457f565b8015610cdc5780601f10610cb157610100808354040283529160200191610cdc565b820191906000526020600020905b815481529060010190602001808311610cbf57829003601f168201915b505050505090508281604051602001610cf6929190613d38565b60405160208183030381529060405292505050919050565b610d298383836040518060200160405280600081525061151b565b505050565b60085481565b6000610d3f826117e8565b511115610d81576040517f08c379a0000000000000000000000000000000000000000000000000000000008152600401610d78906141ce565b60405180910390fd5b80600a5411610dc5576040517f08c379a0000000000000000000000000000000000000000000000000000000008152600401610dbc9061400e565b60405180910390fd5b6000601260008381526020019081526020016000205411610e1b576040517f08c379a0000000000000000000000000000000000000000000000000000000008152600401610e129061422e565b60405180910390fd5b6000601260008381526020019081526020016000205490506000610e3e82610f55565b90506000610e4b82610a83565b90506000610e588261110f565b9050610e648582612126565b847f15a6487b7915a7116ce2a61d43b17e9b47484b1931f3c79f2f3d139b307b389384604051610e949190613fac565b60405180910390a25050505050565b6000806002600084815260200190815260200160002060009054906101000a900473ffffffffffffffffffffffffffffffffffffffff169050600073ffffffffffffffffffffffffffffffffffffffff168173ffffffffffffffffffffffffffffffffffffffff161415610f4c576040517f08c379a0000000000000000000000000000000000000000000000000000000008152600401610f43906140ce565b60405180910390fd5b80915050919050565b606060006001600b5484610f69919061460e565b610f739190614366565b9050610f80600d5461219a565b610f8b600d5461219a565b604051602001610f9c929190613e1e565b604051602081830303815290604052915060005b8181101561102e5760008482604051602001610fcd929190614269565b6040516020818303038152906040528051906020012060001c90506000610ff382610b1c565b90508481604051602001611008929190613d14565b604051602081830303815290604052945050508080611026906145b1565b915050610fb0565b50816040516020016110409190613db9565b604051602081830303815290604052915050919050565b60008073ffffffffffffffffffffffffffffffffffffffff168273ffffffffffffffffffffffffffffffffffffffff1614156110c8576040517f08c379a00000000000000000000000000000000000000000000000000000000081526004016110bf906140ae565b60405180910390fd5b600360008373ffffffffffffffffffffffffffffffffffffffff1673ffffffffffffffffffffffffffffffffffffffff168152602001908152602001600020549050919050565b606060006040518060400160405280601d81526020017f646174613a6170706c69636174696f6e2f6a736f6e3b6261736536342c000000815250905080611174846040516020016111609190613ddb565b604051602081830303815290604052611f7b565b604051602001611185929190613d14565b604051602081830303815290604052915050919050565b7f000000000000000000000000000000000000000000000000000000000000000073ffffffffffffffffffffffffffffffffffffffff163373ffffffffffffffffffffffffffffffffffffffff161461122a576040517f08c379a0000000000000000000000000000000000000000000000000000000008152600401611221906141ae565b60405180910390fd5b611234828261236f565b5050565b600d5481565b600e818154811061124e57600080fd5b9060005260206000200160009150905080546112699061457f565b80601f01602080910402602001604051908101604052809291908181526020018280546112959061457f565b80156112e25780601f106112b7576101008083540402835291602001916112e2565b820191906000526020600020905b8154815290600101906020018083116112c557829003601f168201915b505050505081565b6060600180546112f99061457f565b80601f01602080910402602001604051908101604052809291908181526020018280546113259061457f565b80156113725780601f1061134757610100808354040283529160200191611372565b820191906000526020600020905b81548152906001019060200180831161135557829003601f168201915b5050505050905090565b600c5481565b60126020528060005260406000206000915090505481565b6113a2611b80565b73ffffffffffffffffffffffffffffffffffffffff168273ffffffffffffffffffffffffffffffffffffffff161415611410576040517f08c379a00000000000000000000000000000000000000000000000000000000081526004016114079061404e565b60405180910390fd5b806005600061141d611b80565b73ffffffffffffffffffffffffffffffffffffffff1673ffffffffffffffffffffffffffffffffffffffff16815260200190815260200160002060008473ffffffffffffffffffffffffffffffffffffffff1673ffffffffffffffffffffffffffffffffffffffff16815260200190815260200160002060006101000a81548160ff0219169083151502179055508173ffffffffffffffffffffffffffffffffffffffff166114ca611b80565b73ffffffffffffffffffffffffffffffffffffffff167f17307eab39ab6107e8899845ad3d59bd9653f200f220920489ca2b5937696c318360405161150f9190613f08565b60405180910390a35050565b61152c611526611b80565b83611c41565b61156b576040517f08c379a00000000000000000000000000000000000000000000000000000000081526004016115629061420e565b60405180910390fd5b6115778484848461241f565b50505050565b600f818154811061158d57600080fd5b9060005260206000200160009150905080546115a89061457f565b80601f01602080910402602001604051908101604052809291908181526020018280546115d49061457f565b80156116215780601f106115f657610100808354040283529160200191611621565b820191906000526020600020905b81548152906001019060200180831161160457829003601f168201915b505050505081565b6060600e80805490508361163d919061460e565b81548110611674577f4e487b7100000000000000000000000000000000000000000000000000000000600052603260045260246000fd5b9060005260206000200180546116899061457f565b80601f01602080910402602001604051908101604052809291908181526020018280546116b59061457f565b80156117025780601f106116d757610100808354040283529160200191611702565b820191906000526020600020905b8154815290600101906020018083116116e557829003601f168201915b505050505090506000600d54836002600d5461171e9190614424565b60405160200161172f929190614269565b6040516020818303038152906040528051906020012060001c611752919061460e565b90506000600d548460016002600d5461176b9190614424565b6117759190614366565b604051602001611786929190614269565b6040516020818303038152906040528051906020012060001c6117a9919061460e565b9050826117b58361219a565b6117be8361219a565b6040516020016117d093929190613d72565b60405160208183030381529060405292505050919050565b60606117f382611b14565b611832576040517f08c379a00000000000000000000000000000000000000000000000000000000081526004016118299061412e565b60405180910390fd5b60006006600084815260200190815260200160002080546118529061457f565b80601f016020809104026020016040519081016040528092919081815260200182805461187e9061457f565b80156118cb5780601f106118a0576101008083540402835291602001916118cb565b820191906000526020600020905b8154815290600101906020018083116118ae57829003601f168201915b5050505050905060006118dc61247b565b90506000815114156118f2578192505050611935565b60008251111561192757808260405160200161190f929190613d14565b60405160208183030381529060405292505050611935565b61193084612492565b925050505b919050565b600a5481565b60095481565b6000600560008473ffffffffffffffffffffffffffffffffffffffff1673ffffffffffffffffffffffffffffffffffffffff16815260200190815260200160002060008373ffffffffffffffffffffffffffffffffffffffff1673ffffffffffffffffffffffffffffffffffffffff16815260200190815260200160002060009054906101000a900460ff16905092915050565b60006119ea600854600954612539565b9050336010600083815260200190815260200160002060006101000a81548173ffffffffffffffffffffffffffffffffffffffff021916908373ffffffffffffffffffffffffffffffffffffffff1602179055506000600a5490508060116000848152602001908152602001600020819055506001600a54611a6c9190614366565b600a8190555080827fb97343f1f2afc4959f818046ccae28fd7b05fcd2b7a7dc651cbb52a096cae03560405160405180910390a35090565b600b5481565b60007f01ffc9a7000000000000000000000000000000000000000000000000000000007bffffffffffffffffffffffffffffffffffffffffffffffffffffffff1916827bffffffffffffffffffffffffffffffffffffffffffffffffffffffff1916149050919050565b60008073ffffffffffffffffffffffffffffffffffffffff166002600084815260200190815260200160002060009054906101000a900473ffffffffffffffffffffffffffffffffffffffff1673ffffffffffffffffffffffffffffffffffffffff1614159050919050565b600033905090565b816004600083815260200190815260200160002060006101000a81548173ffffffffffffffffffffffffffffffffffffffff021916908373ffffffffffffffffffffffffffffffffffffffff160217905550808273ffffffffffffffffffffffffffffffffffffffff16611bfb83610ea3565b73ffffffffffffffffffffffffffffffffffffffff167f8c5be1e5ebec7d5bd14f71427d1e84f3dd0314c0f7b2291e5b200ac8c7c3b92560405160405180910390a45050565b6000611c4c82611b14565b611c8b576040517f08c379a0000000000000000000000000000000000000000000000000000000008152600401611c829061406e565b60405180910390fd5b6000611c9683610ea3565b90508073ffffffffffffffffffffffffffffffffffffffff168473ffffffffffffffffffffffffffffffffffffffff161480611d0557508373ffffffffffffffffffffffffffffffffffffffff16611ced8461083b565b73ffffffffffffffffffffffffffffffffffffffff16145b80611d165750611d158185611946565b5b91505092915050565b8273ffffffffffffffffffffffffffffffffffffffff16611d3f82610ea3565b73ffffffffffffffffffffffffffffffffffffffff1614611d95576040517f08c379a0000000000000000000000000000000000000000000000000000000008152600401611d8c9061416e565b60405180910390fd5b600073ffffffffffffffffffffffffffffffffffffffff168273ffffffffffffffffffffffffffffffffffffffff161415611e05576040517f08c379a0000000000000000000000000000000000000000000000000000000008152600401611dfc9061402e565b60405180910390fd5b611e1083838361269b565b611e1b600082611b88565b6001600360008573ffffffffffffffffffffffffffffffffffffffff1673ffffffffffffffffffffffffffffffffffffffff1681526020019081526020016000206000828254611e6b919061447e565b925050819055506001600360008473ffffffffffffffffffffffffffffffffffffffff1673ffffffffffffffffffffffffffffffffffffffff1681526020019081526020016000206000828254611ec29190614366565b92505081905550816002600083815260200190815260200160002060006101000a81548173ffffffffffffffffffffffffffffffffffffffff021916908373ffffffffffffffffffffffffffffffffffffffff160217905550808273ffffffffffffffffffffffffffffffffffffffff168473ffffffffffffffffffffffffffffffffffffffff167fddf252ad1be2c89b69c2b068fc378daa952ba7f163c4a11628f55a4df523b3ef60405160405180910390a4505050565b6060600082511415611f9e57604051806020016040528060008152509050612121565b60006040518060600160405280604081526020016147806040913990506000600360028551611fcd9190614366565b611fd791906143f3565b6004611fe39190614424565b90506000602082611ff49190614366565b67ffffffffffffffff811115612033577f4e487b7100000000000000000000000000000000000000000000000000000000600052604160045260246000fd5b6040519080825280601f01601f1916602001820160405280156120655781602001600182028036833780820191505090505b509050818152600183018586518101602084015b818310156120e0576003830192508251603f8160121c1685015160f81b8252600182019150603f81600c1c1685015160f81b8252600182019150603f8160061c1685015160f81b8252600182019150603f811685015160f81b825260018201915050612079565b6003895106600181146120fa576002811461210a57612115565b613d3d60f01b6002830352612115565b603d60f81b60018303525b50505050508093505050505b919050565b61212f82611b14565b61216e576040517f08c379a0000000000000000000000000000000000000000000000000000000008152600401612165906140ee565b60405180910390fd5b80600660008481526020019081526020016000209080519060200190612195929190612cad565b505050565b606060008214156121e2576040518060400160405280600181526020017f3000000000000000000000000000000000000000000000000000000000000000815250905061236a565b600082905060005b600082146122145780806121fd906145b1565b915050600a8261220d91906143f3565b91506121ea565b60008167ffffffffffffffff811115612256577f4e487b7100000000000000000000000000000000000000000000000000000000600052604160045260246000fd5b6040519080825280601f01601f1916602001820160405280156122885781602001600182028036833780820191505090505b50905060008290505b60008614612362576001816122a6919061447e565b90506000600a80886122b891906143f3565b6122c29190614424565b876122cd919061447e565b60306122d991906143bc565b905060008160f81b90508084848151811061231d577f4e487b7100000000000000000000000000000000000000000000000000000000600052603260045260246000fd5b60200101907effffffffffffffffffffffffffffffffffffffffffffffffffffffffffffff1916908160001a905350600a8861235991906143f3565b97505050612291565b819450505050505b919050565b60006010600084815260200190815260200160002060009054906101000a900473ffffffffffffffffffffffffffffffffffffffff1690506000601160008581526020019081526020016000205490506123c982826126a0565b826012600083815260200190815260200160002081905550807faad5362ce528ed941024b95d4c18dfd49b8503e1f586a5c353631d98c2af41b784604051612411919061424e565b60405180910390a250505050565b61242a848484611d1f565b612436848484846126be565b612475576040517f08c379a000000000000000000000000000000000000000000000000000000000815260040161246c90613fce565b60405180910390fd5b50505050565b606060405180602001604052806000815250905090565b606061249d82611b14565b6124dc576040517f08c379a00000000000000000000000000000000000000000000000000000000081526004016124d39061418e565b60405180910390fd5b60006124e661247b565b905060008151116125065760405180602001604052806000815250612531565b8061251084612855565b604051602001612521929190613d14565b6040516020818303038152906040525b915050919050565b60007f000000000000000000000000000000000000000000000000000000000000000073ffffffffffffffffffffffffffffffffffffffff16634000aea07f0000000000000000000000000000000000000000000000000000000000000000848660006040516020016125ad929190613f3e565b6040516020818303038152906040526040518463ffffffff1660e01b81526004016125da93929190613eca565b602060405180830381600087803b1580156125f457600080fd5b505af1158015612608573d6000803e3d6000fd5b505050506040513d601f19601f8201168201806040525081019061262c919061305a565b50600061264f846000306007600089815260200190815260200160002054612a02565b9050600160076000868152602001908152602001600020546126719190614366565b60076000868152602001908152602001600020819055506126928482612a3e565b91505092915050565b505050565b6126ba828260405180602001604052806000815250612a71565b5050565b60006126df8473ffffffffffffffffffffffffffffffffffffffff16612acc565b15612848578373ffffffffffffffffffffffffffffffffffffffff1663150b7a02612708611b80565b8786866040518563ffffffff1660e01b815260040161272a9493929190613e7e565b602060405180830381600087803b15801561274457600080fd5b505af192505050801561277557506040513d601f19601f820116820180604052508101906127729190613111565b60015b6127f8573d80600081146127a5576040519150601f19603f3d011682016040523d82523d6000602084013e6127aa565b606091505b506000815114156127f0576040517f08c379a00000000000000000000000000000000000000000000000000000000081526004016127e790613fce565b60405180910390fd5b805181602001fd5b63150b7a0260e01b7bffffffffffffffffffffffffffffffffffffffffffffffffffffffff1916817bffffffffffffffffffffffffffffffffffffffffffffffffffffffff19161491505061284d565b600190505b949350505050565b6060600082141561289d576040518060400160405280600181526020017f300000000000000000000000000000000000000000000000000000000000000081525090506129fd565b600082905060005b600082146128cf5780806128b8906145b1565b915050600a826128c891906143f3565b91506128a5565b60008167ffffffffffffffff811115612911577f4e487b7100000000000000000000000000000000000000000000000000000000600052604160045260246000fd5b6040519080825280601f01601f1916602001820160405280156129435781602001600182028036833780820191505090505b5090505b600085146129f65760018261295c919061447e565b9150600a8561296b919061460e565b60306129779190614366565b60f81b8183815181106129b3577f4e487b7100000000000000000000000000000000000000000000000000000000600052603260045260246000fd5b60200101907effffffffffffffffffffffffffffffffffffffffffffffffffffffffffffff1916908160001a905350600a856129ef91906143f3565b9450612947565b8093505050505b919050565b600084848484604051602001612a1b9493929190613f67565b6040516020818303038152906040528051906020012060001c9050949350505050565b60008282604051602001612a53929190613cd1565b60405160208183030381529060405280519060200120905092915050565b612a7b8383612adf565b612a8860008484846126be565b612ac7576040517f08c379a0000000000000000000000000000000000000000000000000000000008152600401612abe90613fce565b60405180910390fd5b505050565b600080823b905060008111915050919050565b600073ffffffffffffffffffffffffffffffffffffffff168273ffffffffffffffffffffffffffffffffffffffff161415612b4f576040517f08c379a0000000000000000000000000000000000000000000000000000000008152600401612b469061410e565b60405180910390fd5b612b5881611b14565b15612b98576040517f08c379a0000000000000000000000000000000000000000000000000000000008152600401612b8f90613fee565b60405180910390fd5b612ba46000838361269b565b6001600360008473ffffffffffffffffffffffffffffffffffffffff1673ffffffffffffffffffffffffffffffffffffffff1681526020019081526020016000206000828254612bf49190614366565b92505081905550816002600083815260200190815260200160002060006101000a81548173ffffffffffffffffffffffffffffffffffffffff021916908373ffffffffffffffffffffffffffffffffffffffff160217905550808273ffffffffffffffffffffffffffffffffffffffff16600073ffffffffffffffffffffffffffffffffffffffff167fddf252ad1be2c89b69c2b068fc378daa952ba7f163c4a11628f55a4df523b3ef60405160405180910390a45050565b828054612cb99061457f565b90600052602060002090601f016020900481019282612cdb5760008555612d22565b82601f10612cf457805160ff1916838001178555612d22565b82800160010185558215612d22579182015b82811115612d21578251825591602001919060010190612d06565b5b509050612d2f9190612d33565b5090565b5b80821115612d4c576000816000905550600101612d34565b5090565b6000612d63612d5e846142c3565b614292565b905082815260208101848484011115612d7b57600080fd5b612d8684828561453d565b509392505050565b6000612da1612d9c846142f3565b614292565b905082815260208101848484011115612db957600080fd5b612dc484828561453d565b509392505050565b600081359050612ddb8161470c565b92915050565b600081359050612df081614723565b92915050565b600081519050612e0581614723565b92915050565b600081359050612e1a8161473a565b92915050565b600081359050612e2f81614751565b92915050565b600081519050612e4481614751565b92915050565b600082601f830112612e5b57600080fd5b8135612e6b848260208601612d50565b91505092915050565b600082601f830112612e8557600080fd5b8135612e95848260208601612d8e565b91505092915050565b600081359050612ead81614768565b92915050565b600060208284031215612ec557600080fd5b6000612ed384828501612dcc565b91505092915050565b60008060408385031215612eef57600080fd5b6000612efd85828601612dcc565b9250506020612f0e85828601612dcc565b9150509250929050565b600080600060608486031215612f2d57600080fd5b6000612f3b86828701612dcc565b9350506020612f4c86828701612dcc565b9250506040612f5d86828701612e9e565b9150509250925092565b60008060008060808587031215612f7d57600080fd5b6000612f8b87828801612dcc565b9450506020612f9c87828801612dcc565b9350506040612fad87828801612e9e565b925050606085013567ffffffffffffffff811115612fca57600080fd5b612fd687828801612e4a565b91505092959194509250565b60008060408385031215612ff557600080fd5b600061300385828601612dcc565b925050602061301485828601612de1565b9150509250929050565b6000806040838503121561303157600080fd5b600061303f85828601612dcc565b925050602061305085828601612e9e565b9150509250929050565b60006020828403121561306c57600080fd5b600061307a84828501612df6565b91505092915050565b60006020828403121561309557600080fd5b60006130a384828501612e0b565b91505092915050565b600080604083850312156130bf57600080fd5b60006130cd85828601612e0b565b92505060206130de85828601612e9e565b9150509250929050565b6000602082840312156130fa57600080fd5b600061310884828501612e20565b91505092915050565b60006020828403121561312357600080fd5b600061313184828501612e35565b91505092915050565b60006020828403121561314c57600080fd5b600082013567ffffffffffffffff81111561316657600080fd5b61317284828501612e74565b91505092915050565b60006020828403121561318d57600080fd5b600061319b84828501612e9e565b91505092915050565b6131ad816144b2565b82525050565b6131bc816144c4565b82525050565b6131cb816144d0565b82525050565b6131e26131dd826144d0565b6145fa565b82525050565b60006131f382614323565b6131fd8185614339565b935061320d81856020860161454c565b613216816146fb565b840191505092915050565b600061322c8261432e565b613236818561434a565b935061324681856020860161454c565b61324f816146fb565b840191505092915050565b60006132658261432e565b61326f818561435b565b935061327f81856020860161454c565b80840191505092915050565b600061329860098361435b565b91507f7b226e616d65223a2200000000000000000000000000000000000000000000006000830152600982019050919050565b60006132d860328361434a565b91507f4552433732313a207472616e7366657220746f206e6f6e20455243373231526560008301527f63656976657220696d706c656d656e74657200000000000000000000000000006020830152604082019050919050565b600061333e601c8361434a565b91507f4552433732313a20746f6b656e20616c7265616479206d696e746564000000006000830152602082019050919050565b600061337e601f8361434a565b91507f546f6b656e496420686173206e6f74206265656e206d696e74656420796574006000830152602082019050919050565b60006133be60248361434a565b91507f4552433732313a207472616e7366657220746f20746865207a65726f2061646460008301527f72657373000000000000000000000000000000000000000000000000000000006020830152604082019050919050565b600061342460198361434a565b91507f4552433732313a20617070726f766520746f2063616c6c6572000000000000006000830152602082019050919050565b6000613464602c8361434a565b91507f4552433732313a206f70657261746f7220717565727920666f72206e6f6e657860008301527f697374656e7420746f6b656e00000000000000000000000000000000000000006020830152604082019050919050565b60006134ca601d8361435b565b91507f272066696c6c3d277472616e73706172656e7427207374726f6b653d270000006000830152601d82019050919050565b600061350a60018361435b565b91507f20000000000000000000000000000000000000000000000000000000000000006000830152600182019050919050565b600061354a60038361435b565b91507f272f3e00000000000000000000000000000000000000000000000000000000006000830152600382019050919050565b600061358a60078361435b565b91507f535647204e4654000000000000000000000000000000000000000000000000006000830152600782019050919050565b60006135ca60388361434a565b91507f4552433732313a20617070726f76652063616c6c6572206973206e6f74206f7760008301527f6e6572206e6f7220617070726f76656420666f7220616c6c00000000000000006020830152604082019050919050565b6000613630602a8361434a565b91507f4552433732313a2062616c616e636520717565727920666f7220746865207a6560008301527f726f2061646472657373000000000000000000000000000000000000000000006020830152604082019050919050565b600061369660298361434a565b91507f4552433732313a206f776e657220717565727920666f72206e6f6e657869737460008301527f656e7420746f6b656e00000000000000000000000000000000000000000000006020830152604082019050919050565b60006136fc602e8361434a565b91507f45524337323155524953746f726167653a2055524920736574206f66206e6f6e60008301527f6578697374656e7420746f6b656e0000000000000000000000000000000000006020830152604082019050919050565b600061376260028361435b565b91507f227d0000000000000000000000000000000000000000000000000000000000006000830152600282019050919050565b60006137a260208361434a565b91507f4552433732313a206d696e7420746f20746865207a65726f20616464726573736000830152602082019050919050565b60006137e260318361434a565b91507f45524337323155524953746f726167653a2055524920717565727920666f722060008301527f6e6f6e6578697374656e7420746f6b656e0000000000000000000000000000006020830152604082019050919050565b6000613848602c8361434a565b91507f4552433732313a20617070726f76656420717565727920666f72206e6f6e657860008301527f697374656e7420746f6b656e00000000000000000000000000000000000000006020830152604082019050919050565b60006138ae60298361434a565b91507f4552433732313a207472616e73666572206f6620746f6b656e2074686174206960008301527f73206e6f74206f776e00000000000000000000000000000000000000000000006020830152604082019050919050565b600061391460308361435b565b91507f3c73766720786d6c6e733d27687474703a2f2f7777772e77332e6f72672f323060008301527f30302f73766727206865696768743d27000000000000000000000000000000006020830152603082019050919050565b600061397a602f8361434a565b91507f4552433732314d657461646174613a2055524920717565727920666f72206e6f60008301527f6e6578697374656e7420746f6b656e00000000000000000000000000000000006020830152604082019050919050565b60006139e0601f8361434a565b91507f4f6e6c7920565246436f6f7264696e61746f722063616e2066756c66696c6c006000830152602082019050919050565b6000613a2060438361435b565b91507f222c20226465736372697074696f6e223a22416e204e4654206261736564206f60008301527f6e2053564721222c202261747472696275746573223a22222c2022696d61676560208301527f223a2200000000000000000000000000000000000000000000000000000000006040830152604382019050919050565b6000613aac601b8361434a565b91507f746f6b656e55524920697320616c726561647920616c6c2073657400000000006000830152602082019050919050565b6000613aec60218361434a565b91507f4552433732313a20617070726f76616c20746f2063757272656e74206f776e6560008301527f72000000000000000000000000000000000000000000000000000000000000006020830152604082019050919050565b6000613b5260318361434a565b91507f4552433732313a207472616e736665722063616c6c6572206973206e6f74206f60008301527f776e6572206e6f7220617070726f7665640000000000000000000000000000006020830152604082019050919050565b6000613bb860148361434a565b91507f4e65656420746f207761697420666f72205652460000000000000000000000006000830152602082019050919050565b6000613bf860028361435b565b91507f273e0000000000000000000000000000000000000000000000000000000000006000830152600282019050919050565b6000613c3860068361435b565b91507f3c2f7376673e00000000000000000000000000000000000000000000000000006000830152600682019050919050565b6000613c7860098361435b565b91507f272077696474683d2700000000000000000000000000000000000000000000006000830152600982019050919050565b613cb481614526565b82525050565b613ccb613cc682614526565b614604565b82525050565b6000613cdd82856131d1565b602082019150613ced8284613cba565b6020820191508190509392505050565b6000613d09828461325a565b915081905092915050565b6000613d20828561325a565b9150613d2c828461325a565b91508190509392505050565b6000613d44828561325a565b9150613d4f826134bd565b9150613d5b828461325a565b9150613d668261353d565b91508190509392505050565b6000613d7e828661325a565b9150613d89826134fd565b9150613d95828561325a565b9150613da0826134fd565b9150613dac828461325a565b9150819050949350505050565b6000613dc5828461325a565b9150613dd082613c2b565b915081905092915050565b6000613de68261328b565b9150613df18261357d565b9150613dfc82613a13565b9150613e08828461325a565b9150613e1382613755565b915081905092915050565b6000613e2982613907565b9150613e35828561325a565b9150613e4082613c6b565b9150613e4c828461325a565b9150613e5782613beb565b91508190509392505050565b6000602082019050613e7860008301846131a4565b92915050565b6000608082019050613e9360008301876131a4565b613ea060208301866131a4565b613ead6040830185613cab565b8181036060830152613ebf81846131e8565b905095945050505050565b6000606082019050613edf60008301866131a4565b613eec6020830185613cab565b8181036040830152613efe81846131e8565b9050949350505050565b6000602082019050613f1d60008301846131b3565b92915050565b6000602082019050613f3860008301846131c2565b92915050565b6000604082019050613f5360008301856131c2565b613f606020830184613cab565b9392505050565b6000608082019050613f7c60008301876131c2565b613f896020830186613cab565b613f9660408301856131a4565b613fa36060830184613cab565b95945050505050565b60006020820190508181036000830152613fc68184613221565b905092915050565b60006020820190508181036000830152613fe7816132cb565b9050919050565b6000602082019050818103600083015261400781613331565b9050919050565b6000602082019050818103600083015261402781613371565b9050919050565b60006020820190508181036000830152614047816133b1565b9050919050565b6000602082019050818103600083015261406781613417565b9050919050565b6000602082019050818103600083015261408781613457565b9050919050565b600060208201905081810360008301526140a7816135bd565b9050919050565b600060208201905081810360008301526140c781613623565b9050919050565b600060208201905081810360008301526140e781613689565b9050919050565b60006020820190508181036000830152614107816136ef565b9050919050565b6000602082019050818103600083015261412781613795565b9050919050565b60006020820190508181036000830152614147816137d5565b9050919050565b600060208201905081810360008301526141678161383b565b9050919050565b60006020820190508181036000830152614187816138a1565b9050919050565b600060208201905081810360008301526141a78161396d565b9050919050565b600060208201905081810360008301526141c7816139d3565b9050919050565b600060208201905081810360008301526141e781613a9f565b9050919050565b6000602082019050818103600083015261420781613adf565b9050919050565b6000602082019050818103600083015261422781613b45565b9050919050565b6000602082019050818103600083015261424781613bab565b9050919050565b60006020820190506142636000830184613cab565b92915050565b600060408201905061427e6000830185613cab565b61428b6020830184613cab565b9392505050565b6000604051905081810181811067ffffffffffffffff821117156142b9576142b86146cc565b5b8060405250919050565b600067ffffffffffffffff8211156142de576142dd6146cc565b5b601f19601f8301169050602081019050919050565b600067ffffffffffffffff82111561430e5761430d6146cc565b5b601f19601f8301169050602081019050919050565b600081519050919050565b600081519050919050565b600082825260208201905092915050565b600082825260208201905092915050565b600081905092915050565b600061437182614526565b915061437c83614526565b9250827fffffffffffffffffffffffffffffffffffffffffffffffffffffffffffffffff038211156143b1576143b061463f565b5b828201905092915050565b60006143c782614530565b91506143d283614530565b92508260ff038211156143e8576143e761463f565b5b828201905092915050565b60006143fe82614526565b915061440983614526565b9250826144195761441861466e565b5b828204905092915050565b600061442f82614526565b915061443a83614526565b9250817fffffffffffffffffffffffffffffffffffffffffffffffffffffffffffffffff04831182151516156144735761447261463f565b5b828202905092915050565b600061448982614526565b915061449483614526565b9250828210156144a7576144a661463f565b5b828203905092915050565b60006144bd82614506565b9050919050565b60008115159050919050565b6000819050919050565b60007fffffffff0000000000000000000000000000000000000000000000000000000082169050919050565b600073ffffffffffffffffffffffffffffffffffffffff82169050919050565b6000819050919050565b600060ff82169050919050565b82818337600083830152505050565b60005b8381101561456a57808201518184015260208101905061454f565b83811115614579576000848401525b50505050565b6000600282049050600182168061459757607f821691505b602082108114156145ab576145aa61469d565b5b50919050565b60006145bc82614526565b91507fffffffffffffffffffffffffffffffffffffffffffffffffffffffffffffffff8214156145ef576145ee61463f565b5b600182019050919050565b6000819050919050565b6000819050919050565b600061461982614526565b915061462483614526565b9250826146345761463361466e565b5b828206905092915050565b7f4e487b7100000000000000000000000000000000000000000000000000000000600052601160045260246000fd5b7f4e487b7100000000000000000000000000000000000000000000000000000000600052601260045260246000fd5b7f4e487b7100000000000000000000000000000000000000000000000000000000600052602260045260246000fd5b7f4e487b7100000000000000000000000000000000000000000000000000000000600052604160045260246000fd5b6000601f19601f8301169050919050565b614715816144b2565b811461472057600080fd5b50565b61472c816144c4565b811461473757600080fd5b50565b614743816144d0565b811461474e57600080fd5b50565b61475a816144da565b811461476557600080fd5b50565b61477181614526565b811461477c57600080fd5b5056fe4142434445464748494a4b4c4d4e4f505152535455565758595a6162636465666768696a6b6c6d6e6f707172737475767778797a303132333435363738392b2fa2646970667358221220d1a13fcfb86b7121685c6a06bb01e56f26850a51bc33f5f17636498f21878f7464736f6c63430008000033",
  "devdoc": {
    "kind": "dev",
    "methods": {
      "approve(address,uint256)": {
        "details": "See {IERC721-approve}."
      },
      "balanceOf(address)": {
        "details": "See {IERC721-balanceOf}."
      },
      "getApproved(uint256)": {
        "details": "See {IERC721-getApproved}."
      },
      "isApprovedForAll(address,address)": {
        "details": "See {IERC721-isApprovedForAll}."
      },
      "name()": {
        "details": "See {IERC721Metadata-name}."
      },
      "ownerOf(uint256)": {
        "details": "See {IERC721-ownerOf}."
      },
      "safeTransferFrom(address,address,uint256)": {
        "details": "See {IERC721-safeTransferFrom}."
      },
      "safeTransferFrom(address,address,uint256,bytes)": {
        "details": "See {IERC721-safeTransferFrom}."
      },
      "setApprovalForAll(address,bool)": {
        "details": "See {IERC721-setApprovalForAll}."
      },
      "supportsInterface(bytes4)": {
        "details": "See {IERC165-supportsInterface}."
      },
      "symbol()": {
        "details": "See {IERC721Metadata-symbol}."
      },
      "tokenURI(uint256)": {
        "details": "See {IERC721Metadata-tokenURI}."
      },
      "transferFrom(address,address,uint256)": {
        "details": "See {IERC721-transferFrom}."
      }
    },
    "version": 1
  },
  "userdoc": {
    "kind": "user",
    "methods": {},
    "version": 1
  },
  "storageLayout": {
    "storage": [
      {
        "astId": 291,
        "contract": "contracts/RandomSVG.sol:RandomSVG",
        "label": "_name",
        "offset": 0,
        "slot": "0",
        "type": "t_string_storage"
      },
      {
        "astId": 293,
        "contract": "contracts/RandomSVG.sol:RandomSVG",
        "label": "_symbol",
        "offset": 0,
        "slot": "1",
        "type": "t_string_storage"
      },
      {
        "astId": 297,
        "contract": "contracts/RandomSVG.sol:RandomSVG",
        "label": "_owners",
        "offset": 0,
        "slot": "2",
        "type": "t_mapping(t_uint256,t_address)"
      },
      {
        "astId": 301,
        "contract": "contracts/RandomSVG.sol:RandomSVG",
        "label": "_balances",
        "offset": 0,
        "slot": "3",
        "type": "t_mapping(t_address,t_uint256)"
      },
      {
        "astId": 305,
        "contract": "contracts/RandomSVG.sol:RandomSVG",
        "label": "_tokenApprovals",
        "offset": 0,
        "slot": "4",
        "type": "t_mapping(t_uint256,t_address)"
      },
      {
        "astId": 311,
        "contract": "contracts/RandomSVG.sol:RandomSVG",
        "label": "_operatorApprovals",
        "offset": 0,
        "slot": "5",
        "type": "t_mapping(t_address,t_mapping(t_address,t_bool))"
      },
      {
        "astId": 1228,
        "contract": "contracts/RandomSVG.sol:RandomSVG",
        "label": "_tokenURIs",
        "offset": 0,
        "slot": "6",
        "type": "t_mapping(t_uint256,t_string_storage)"
      },
      {
        "astId": 79,
        "contract": "contracts/RandomSVG.sol:RandomSVG",
        "label": "nonces",
        "offset": 0,
        "slot": "7",
        "type": "t_mapping(t_bytes32,t_uint256)"
      },
      {
        "astId": 1989,
        "contract": "contracts/RandomSVG.sol:RandomSVG",
        "label": "keyHash",
        "offset": 0,
        "slot": "8",
        "type": "t_bytes32"
      },
      {
        "astId": 1991,
        "contract": "contracts/RandomSVG.sol:RandomSVG",
        "label": "fee",
        "offset": 0,
        "slot": "9",
        "type": "t_uint256"
      },
      {
        "astId": 1993,
        "contract": "contracts/RandomSVG.sol:RandomSVG",
        "label": "tokenCounter",
        "offset": 0,
        "slot": "10",
        "type": "t_uint256"
      },
      {
        "astId": 1995,
        "contract": "contracts/RandomSVG.sol:RandomSVG",
        "label": "maxNumberofPaths",
        "offset": 0,
        "slot": "11",
        "type": "t_uint256"
      },
      {
        "astId": 1997,
        "contract": "contracts/RandomSVG.sol:RandomSVG",
        "label": "maxNumberofPathCommands",
        "offset": 0,
        "slot": "12",
        "type": "t_uint256"
      },
      {
        "astId": 1999,
        "contract": "contracts/RandomSVG.sol:RandomSVG",
        "label": "size",
        "offset": 0,
        "slot": "13",
        "type": "t_uint256"
      },
      {
        "astId": 2002,
        "contract": "contracts/RandomSVG.sol:RandomSVG",
        "label": "pathCommands",
        "offset": 0,
        "slot": "14",
        "type": "t_array(t_string_storage)dyn_storage"
      },
      {
        "astId": 2005,
        "contract": "contracts/RandomSVG.sol:RandomSVG",
        "label": "colors",
        "offset": 0,
        "slot": "15",
        "type": "t_array(t_string_storage)dyn_storage"
      },
      {
        "astId": 2009,
        "contract": "contracts/RandomSVG.sol:RandomSVG",
        "label": "requestIdToSender",
        "offset": 0,
        "slot": "16",
        "type": "t_mapping(t_bytes32,t_address)"
      },
      {
        "astId": 2013,
        "contract": "contracts/RandomSVG.sol:RandomSVG",
        "label": "requestIdToTokenId",
        "offset": 0,
        "slot": "17",
        "type": "t_mapping(t_bytes32,t_uint256)"
      },
      {
        "astId": 2017,
        "contract": "contracts/RandomSVG.sol:RandomSVG",
        "label": "tokenIdToRandomNumber",
        "offset": 0,
        "slot": "18",
        "type": "t_mapping(t_uint256,t_uint256)"
      }
    ],
    "types": {
      "t_address": {
        "encoding": "inplace",
        "label": "address",
        "numberOfBytes": "20"
      },
      "t_array(t_string_storage)dyn_storage": {
        "base": "t_string_storage",
        "encoding": "dynamic_array",
        "label": "string[]",
        "numberOfBytes": "32"
      },
      "t_bool": {
        "encoding": "inplace",
        "label": "bool",
        "numberOfBytes": "1"
      },
      "t_bytes32": {
        "encoding": "inplace",
        "label": "bytes32",
        "numberOfBytes": "32"
      },
      "t_mapping(t_address,t_bool)": {
        "encoding": "mapping",
        "key": "t_address",
        "label": "mapping(address => bool)",
        "numberOfBytes": "32",
        "value": "t_bool"
      },
      "t_mapping(t_address,t_mapping(t_address,t_bool))": {
        "encoding": "mapping",
        "key": "t_address",
        "label": "mapping(address => mapping(address => bool))",
        "numberOfBytes": "32",
        "value": "t_mapping(t_address,t_bool)"
      },
      "t_mapping(t_address,t_uint256)": {
        "encoding": "mapping",
        "key": "t_address",
        "label": "mapping(address => uint256)",
        "numberOfBytes": "32",
        "value": "t_uint256"
      },
      "t_mapping(t_bytes32,t_address)": {
        "encoding": "mapping",
        "key": "t_bytes32",
        "label": "mapping(bytes32 => address)",
        "numberOfBytes": "32",
        "value": "t_address"
      },
      "t_mapping(t_bytes32,t_uint256)": {
        "encoding": "mapping",
        "key": "t_bytes32",
        "label": "mapping(bytes32 => uint256)",
        "numberOfBytes": "32",
        "value": "t_uint256"
      },
      "t_mapping(t_uint256,t_address)": {
        "encoding": "mapping",
        "key": "t_uint256",
        "label": "mapping(uint256 => address)",
        "numberOfBytes": "32",
        "value": "t_address"
      },
      "t_mapping(t_uint256,t_string_storage)": {
        "encoding": "mapping",
        "key": "t_uint256",
        "label": "mapping(uint256 => string)",
        "numberOfBytes": "32",
        "value": "t_string_storage"
      },
      "t_mapping(t_uint256,t_uint256)": {
        "encoding": "mapping",
        "key": "t_uint256",
        "label": "mapping(uint256 => uint256)",
        "numberOfBytes": "32",
        "value": "t_uint256"
      },
      "t_string_storage": {
        "encoding": "bytes",
        "label": "string",
        "numberOfBytes": "32"
      },
      "t_uint256": {
        "encoding": "inplace",
        "label": "uint256",
        "numberOfBytes": "32"
      }
    }
  }
}